:020000040800F2
:1000000048080020D5000008DD000008DF000008D7
:1000100000000000000000000000000000000000E0
:10002000000000000000000000000000E1000008E7
:100030000000000000000000E30000083541000857
:10004000E7000008E7000008E7000008E7000008F4
:10005000E7000008E7000008F90A0008030B0008A1
:10006000E7000008E7000008E7000008E7000008D4
:10007000E7000008E7000008E7000008E7000008C4
:10008000E7000008E7000008E70000082D4200082C
:10009000E70000083D4200084D420008E12B00083F
:1000A000E7000008E7000008E70000083D4C0008F2
:1000B000E7000008E7000008E7000008E700000884
:1000C0000348854600F062FC00480047514D000897
:1000D000480800200448804704480047FEE7FEE740
:1000E000FEE7FEE7FEE7FEE7B9410008C1000008B1
:1000F00030B50B46014600202022012409E00D46C0
:10010000D5409D4205D31D469540491B2546954047
:1001100040191546521E002DF1DC30BD70B500248B
:100120002546002801DA01244042002901DA012590
:100130004942FFF7DDFFAC4200D04042002C00D026
:10014000494270BD10B5202A04DB0846203AD04051
:10015000002110BD0B46D340D0402024A21A91406C
:100160000843194610BDF8B502464A40D40F420074
:100170004B0052085B089A4202D2024608461146DA
:100180004A0023D0C30D4A00DDB2120EAD1A202D55
:1001900035DA49020126490AF6058A19002C00D0F1
:1001A000524220214F1B1146B9402A411018C20D5E
:1001B0009A4221D0002C17D0012D08DCDA05801AD4
:1001C000D20F8019D207DBB200F047FBF8BDDA0589
:1001D000801A012340001B06C01880185A4280185C
:1001E000CA0F1043490007E04908C2071143DA0566
:1001F000801A80194008801800F027FBF8BD6100C4
:100200000122511A001BF7E70122D2075140AAE749
:100210000122D2075040A6E7024670B54A40D30FEC
:10022000DB0740002DD04A002AD0010E140E000238
:1002300012020919400A520A8418E501044654437F
:10024000000A120A2E045043A4194219200CC54377
:10025000AA18120C0125AD03521C521912047F3941
:10026000240400D0521C104301D44000491EC2B2E5
:100270000C06C0092018401C4008802A02D003E068
:10028000002070BD40084000002900DA002018431B
:1002900070BD70B502464A40D50F40004A00ED07D8
:1002A00040085208002814D0002A12D0C40DD30DE3
:1002B00041020120C0055202490A520AE41A0918F3
:1002C00012187D34914201D3641C00E04900002CD7
:1002D00001DA002070BD0023914201D3891A034343
:1002E000400849000028F7D100290AD0914202D1E4
:1002F0000121C90705E0914201D2012101E001215C
:10030000C943E005C018401900F09FFA70BD000015
:10031000F0B507460846584087B0C00F0490480023
:100320000E46590040084908BC1A884105D2384693
:1003300031461E4617460B460246580040081043F9
:100340004CD0300D039040055900400D490D0590EB
:10035000401A0290402872DA18030121000B0905A7
:100360000843019004980092002805D00199524258
:100370000020884100920190029840210A1A0199B8
:10038000009800F03FFA05460C466B4607CB00F09C
:1003900049FAC0197141039A0E0D0023D717564030
:1003A0001A467A40164344D0049A002A2DD0029A65
:1003B000012A039A15DC1205C01A9141012636055F
:1003C000001C7141D20F059ED20700930192029644
:1003D0002A46234600F087FA07B0F0BD384631467A
:1003E000FAE71605224A0F46B218C01AB741012192
:1003F0000905001C4F4100187F411146181879412A
:10040000E20F10436D19644113E0E2076D081543D4
:100410006408C2071443039A01261205C01A9141C9
:100420003605001C7141CE07400830434908C0180A
:1004300051412A46234600F049FACDE7FFE70498E8
:1004400001224000C117121A00238B410498314643
:10045000C417381AA141EEE730B40124E407634021
:1004600030BC55E730B40124E407614030BC4FE7AD
:100470000000E0FFF0B51FB488B00B990998002484
:1004800048400999C00F490049080991C0070B99D4
:100490000090490049080B9109990898A64608431D
:1004A0001CD00B990A98084318D0099801244000E1
:1004B000420D4800410D099824050003000B20431C
:1004C00009900B980003000B20430B9050181C4917
:1004D0004018002201901446104605E00020014615
:1004E0000DB0F0BD032801DA034600E003239C466B
:1004F000C11A0AAE0AE05F0008ADED5B4F00F75B82
:100500007D430027AA187C41491C5B1E6145F2DD32
:10051000410004AB5A522104120C0A43240C401C23
:100520000828DFDB01980290009970460191009045
:10053000059B049A0799069800F0D5F9D0E70000CA
:100540000DFCFFFFF0B50C465C4085B0E40FE407FE
:1005500003944C000026640859009446490802465A
:100560000296224321D062460A431ED06200570DF4
:100570004A000E032303550D012402462C4924058D
:10058000781B1B0B360B4018234326436146009013
:100590001C46501AB44103D30098401C009002E05E
:1005A000921800985B41002803DA0020014605B04C
:1005B000F0BD0020012109050746864611E064468A
:1005C0001D46141BB54106D36546521BB341744604
:1005D00007430C43A646CD07400849082843921814
:1005E0005B4105460D43EAD11046184313D06046DF
:1005F000194650407140084306D06046101AB34176
:1006000006D20122002306E000220123DB0702E0DC
:100610000122D2435310009874460105381C6141F1
:10062000029C039D0019694100F050F9BFE70000EA
:10063000FD030000C217C10F504010B54018CA0793
:100640009623002100F009F910BD10B50022962371
:10065000114600F002F910BD0EB5C217C10F50408F
:10066000CA0740180021054B0293019200910A46E7
:100670000B4600F038F903B000BD00003304000061
:100680000EB505490291002100910A460B460191E1
:1006900000F029F903B000BD33040000C20F41008F
:1006A00040020123400ADB05D207090EC0187F294A
:1006B00001DA00207047962903DC9623591AC840B6
:1006C00001E096398840002AF4D04042704700008B
:1006D00070B5CD0F4A0009030123090B1B0519430F
:1006E0000B4BED070024520D9A4201DA002070BD39
:1006F000074B34339A4203DC9A1AFFF723FD02E0DA
:100700000449511888402C43F1D0404270BD00008C
:10071000FF030000CDFBFFFF4A0009030123090B83
:100720001B051943094B10B5520D9A4201DA0020FE
:1007300010BD064B34339A4203DC9A1AFFF702FDD0
:1007400010BD03495118884010BD0000FF03000090
:10075000CDFBFFFFC20FD207400040080BD0C10DF8
:100760000723DB01C91840020905400A1143C208EA
:1007700040071143704700200146704710B500291B
:1007800004DB0124E40740428C412146002B04DBBA
:100790001C460123DB075242A341994200D19042FB
:1007A00010BD0000CB0FDB07490010B54908024619
:1007B0000A4307D00A0D07240903E401090B121BA1
:1007C000002A01DC002010BDC900440F0C43C10009
:1007D000E018D205801800F038F810BD0122D207C9
:1007E000002800DB101A002900DB511A81427047F3
:1007F0000122D207002800DB101A002900DB511A61
:100800008842704710B5202A04DB0146203A914007
:10081000002010BD914020239C1A0346E340194359
:10082000904010BD10B5202A06DBCB170846203AB1
:100830001041C1170B4306E00B461341D040202462
:10084000A21A91400843194610BD002904DA401C41
:10085000490001D140084000704770B40024050CE5
:1008600005D11024000402D1002921D01124050E45
:1008700001D100020834050F01D10001241D850FAC
:1008800001D18000A41C002801DB4000641C002969
:1008900008D020252E1B0D46F540A14000D0012197
:1008A0002943084301061B1B000ADB1D02D500205B
:1008B00070BC7047DB05181880180029F8DA401C56
:1008C0004900F5D170BC40084000704710B5002BBE
:1008D00008DA0024401C614192185B411A4301D19F
:1008E0004008400010BDF0B51FB482B005460C00B2
:1008F00003D0084604F0C2F902E004F0BFF920304A
:100900000246009021462846FFF77CFF049B059A8B
:1009100004460F4618431143084314D018461043A9
:100920001BD0009840210A1A18460599FFF70AFCC7
:1009300005460E46009A05990498FFF763FF0843A1
:1009400005D0012004E02046394607B0F0BD002064
:10095000C11705430E432C43374300990E98630596
:10096000401A7905E40A00220C43FD0A0A3002D538
:1009700000200146E9E70105101969410C9C0D9D15
:1009800000196941FFF7A2FFDFE70000064C0125CF
:10099000064E05E0E36807CC2B430C3C9847103427
:1009A000B442F7D3FFF790FBF85B0008185C00082F
:1009B0007047704710B53B490020085E3A49002255
:1009C0008A5E90420EDD39480088401C3749088015
:1009D0000846008836490988884206DD01203549E5
:1009E000087002E00020314908802E490020085E8E
:1009F000314900228A5E90420EDA30480088401C5D
:100A00002E490880084600882D490988884206DD5D
:100A100001202849087002E000202849088029495F
:100A20000020085E284900228A5E90420EDD274899
:100A30000088401C25490880084600882449098808
:100A4000884206DD01202349087002E000201F498A
:100A500008801C490020085E1F4900228A5E9042DF
:100A60000EDA1E480088401C1C4908800846008891
:100A70001B490988884206DD01201649087002E0FA
:100A80000020164908800B480078002803D111483F
:100A90000078002805D00122D1020920C00600F00C
:100AA00011FB10BD000000207C0000208C00002005
:100AB0007E00002094000020800000208E00002096
:100AC000820000200200002084000020900000200E
:100AD0008600002095000020880000209200002061
:100AE0008A000020FF200249087002490870704700
:100AF000A4000020A500002010B5082000F0D6F9C1
:100B000010BD10B5FF20013000F0D0F90120000326
:100B100000F0CCF90120C00300F0C8F910BD10B5F9
:100B2000012240210920C00600F0CCFA322000F05A
:100B3000A1F810BD00200749C861074800690421D9
:100B400008430549086108460069402108430249F5
:100B50000861704728060020002002400021084A52
:100B6000D1610849096902221143064A11611146FF
:100B70004861096940221143024A1161704700002F
:100B800028060020002002400022054BDA61054AB9
:100B9000126901231A43034B1A6101807047000058
:100BA00028060020002002400D48C068102108409F
:100BB000102805D10B48C069022108430949C861C2
:100BC0000748C06804210840042805D10548C069C9
:100BD000012108430349C86114200149C8607047D6
:100BE000002002402806002070B5044600F070FA8C
:100BF00005460BE0601C002808D0002C04D000F053
:100C000067FA401BA04201D9032070BD0F48C0689D
:100C1000C007C00F0028EDD10C48C0682021084053
:100C2000202801D10949C8600848C068102108403F
:100C3000102805D00548C06804210840042803D1C5
:100C4000FFF7B2FF0120E0E70020DEE700200240CE
:100C500010B5044603F004F810BD00000348007806
:100C6000000203490978084370470000A4000020EF
:100C7000A500002031B5002400F02AFA044600BF88
:100C800000F026FA001B00998842F9D338BD000015
:100C9000F8B504460E460127002500BF2448007E13
:100CA000012801D10220F8BD01202149087600BFAA
:100CB0002068012811D11F48FFF796FF002830D186
:100CC000FFF738FF1B48FFF78FFF07461A480069F8
:100CD000042188431849086123E01648FFF784FF80
:100CE00000281ED1401E3060656813E02846FFF7DB
:100CF00035FF1048FFF778FF07460F4800690221CB
:100D000088430D490861002F01D0356008E00120BB
:100D100080022D18A068800261684018A842E5D8BA
:100D200000BF00BF00200249087600BF3846BAE77E
:100D30002806002050C3000000200240034800693C
:100D400080210843014908610020704700200240CB
:100D5000F0B51FB486B0074615461E460120039025
:100D600000240020029000BF2548007E012802D107
:100D700002200BB0F0BD01202149087600BF2148B8
:100D8000FFF732FF03900398002831D1012F02D1E1
:100D90000120029006E0022F02D10220029001E021
:100DA0000420029000241FE02201284631460496C8
:100DB0000595FFF7C7F980B2610001900798081800
:100DC00000900199FFF7E0FE0E48FFF70DFF03903A
:100DD0000D480069400840000B490861039800284D
:100DE00000D004E0601CC4B202988442DCDB00BF87
:100DF00000BF00200249087600BF0398B9E7000051
:100E00002806002050C30000002002400748006967
:100E100080210840002805D005480449486005485D
:100E2000486001E0012070470020FCE700200240FC
:100E300023016745AB89EFCD10B5044601200003BF
:100E4000844200D12BE0FF200130844210D11448AD
:100E50000088002805D113480088E10008400028D8
:100E60001DD001F0ADFD00200F490968486216E071
:100E7000082C00D113E00120C00384420FD10848A0
:100E80000088002805D10748008821110840002863
:100E900005D001F095FD002003490968486210BDA6
:100EA00018000020060000206001002010B5044654
:100EB000054840692040002804D00348446120468A
:100EC000FFF7BAFF10BD00000004014078B50346EB
:100ED000002200240020DEE0012696400D68354007
:100EE0002C46002C7ED04D68022D02D04D68122D6C
:100EF00015D1D508AE001D462035A8595507EE0E70
:100F00000F25B5400646AE4330465607F60E0D692E
:100F1000B5402843D508AD001E46203670511868EC
:100F200056000325B5400646AE4330460D79AD0761
:100F3000AD0F5600B540284318604D68012D08D00C
:100F40004D68022D05D04D68112D02D04D68122D2F
:100F500018D1986856000325B5400646AE43304682
:100F60005600CD68B54028439860586801259540E3
:100F70000646AE43304610264D6835402D09954053
:100F800028435860D86856000325B5400646AE434E
:100F9000304656008D68B5402843D8600126360794
:100FA0004D683540B54275D100BF3E4DAD69012653
:100FB00035433C4EB5613546AD69ED07ED0F009503
:100FC00000BF00BF384D9608B600A85995072E0FF0
:100FD0000F25B5400646AE4330460925ED06AB4227
:100FE00003D100E056E000250FE0304DAB4201D1C7
:100FF00001250AE02E4DAB4201D1022505E02D4D21
:10100000AB4201D1032500E005259607360FB54018
:101010002843254D9608B600A851274D2868054657
:10102000A5432846012636044D683540B54202D115
:10103000054625432846204D286068680546A54397
:101040002846012676044D683540B54202D1054652
:1010500025432846184D6860A8680546A5432846DC
:10106000012636054D683540B54202D10546254377
:101070002846114DA860E8680546A5432846012684
:1010800076054D683540B54202D1054625432846D0
:10109000094DE860521C0D68D540002D00D01BE7BB
:1010A00078BD000000100240080001400004004824
:1010B00000080048000C00480004014042694A4012
:1010C00042617047002A01D0816100E0816270476F
:1010D0000148006870470000640000200246352087
:1010E000805C20282FD100BF3420805C012801D1F2
:1010F0000220704701233420835400BF242335206D
:101100008354106800684008400013681860106835
:10111000006801231B039843136818601068006877
:1011200008431368186010680068012318431368A7
:10113000186020233520835400BF002334208354BB
:1011400000BF0020D5E70220D3E710B50446206891
:101150008069FF2101310840000A00280DD0206875
:10116000006880210840C009002806D0A06B01213A
:101170000843A06308022168C861206880690121D2
:1011800089020840800A00280DD02068006880216C
:101190000840C009002806D0A06B08210843A063BE
:1011A000C8012168C861206880690121490208409E
:1011B000400A00280DD02068006880210840C0093E
:1011C000002806D0A06B02210843A0630802216812
:1011D000C861A06B0B210840002805D020213520D4
:1011E0000155204600F0EEF810BD10B50446206809
:1011F0008069022108404008002822D120688069C7
:1012000080210840C00900281BD120688069402146
:1012100008408009002814D12068806920210840F6
:10122000400900280DD1206880691021084000097C
:10123000002806D12068806908210840C0080028DD
:1012400011D0206800687A2108407A2801D1012055
:1012500000E00020012806D13620005D202802D1C0
:10126000204601F028FF20688069022108404008DC
:1012700000281BD12068806980210840C00900280F
:1012800014D12068806940210840800900280DD1D0
:1012900020688069202108404009002806D1206884
:1012A0008069102108400009002815D020680068D6
:1012B00072210840722801D1012000E0002001289D
:1012C0000AD13620005D102803D03620005D40286A
:1012D00002D1204601F086FD206880690421084083
:1012E0008008002822D12068806980210840C00938
:1012F00000281BD12068806940210840800900280F
:1013000014D12068806920210840400900280DD1AF
:1013100020688069102108400009002806D1206853
:10132000806908210840C008002811D020680068A2
:101330007C2108407C2801D1012000E00020012808
:1013400006D13620005D202802D1204601F044FE5F
:101350002068806904210840800800281BD120688B
:10136000806980210840C009002814D12068806964
:1013700040210840800900280DD120688069202183
:1013800008404009002806D12068806910210840E3
:101390000009002815D020680068742108407428CE
:1013A00001D1012000E0002001280AD13620005D93
:1013B000102803D03620005D402802D1204601F0DD
:1013C00023FC10BD70470146886B704710B504467A
:1013D000002C01D1012010BD3520005D002805D171
:1013E000002134200155204600F00EF9242135203B
:1013F00001552068006840084000216808600F21FE
:1014000009066068884321680861206880680121B6
:10141000C903884321688860A06800280FD0E0686D
:10142000012806D10121C903A0680843216888600A
:1014300005E021218902A068084321688860E068EE
:10144000022802D180022168486020684068104963
:10145000084321684860616920690843A16909025D
:1014600008432168C860216AE06908432168086070
:101470002068006801210843216808600020A063FB
:101480002021352001550021362001550020A2E7FA
:101490000080000270477047F8B504460F461646B4
:1014A0001D463520005D20284FD12068806901212C
:1014B000C9030840C00B002801D00220F8BD00BFBE
:1014C0003420005D012801D10220F7E701213420FA
:1014D000015500BF2221352001551021362001552C
:1014E0000020A06366626585FF2D02DDFF20208558
:1014F00000E02585208DFF280FD1208D618D884249
:101500000BDA092080020090208DC2B201231B0655
:101510003946204601F048FE0AE00920800200908A
:10152000208DC2B201235B063946204601F03CFE05
:1015300000BF00213420015500BF20680068F4215D
:101540000843216808600020B8E70220B6E7F8B534
:1015500004460F4616461D463520005D20284FD113
:10156000206880690121C9030840C00B002801D010
:101570000220F8BD00BF3420005D012801D1022007
:10158000F7E701213420015500BF21213520015505
:101590001021362001550020A06366626585FF2D6D
:1015A00002DDFF20208500E02585208DFF280FD15A
:1015B000208D618D88420BDA012040030090208D40
:1015C000C2B201231B063946204601F0EDFD0AE0B8
:1015D000012040030090208DC2B201235B063946F2
:1015E000204601F0E1FD00BF00213420015500BF7D
:1015F00020680068F2210843216808600020B8E7ED
:101600000220B6E77047704710B586B00446164909
:101610002068884225D1C02001901220029001202C
:101620000390032004900120059001A90F48FFF7C3
:101630004DFC00BF0E48C0690121490508430C4913
:10164000C8610846C069012149050840009000BFF3
:1016500000BF00220221172000F072F8172000F0CE
:1016600063F806B010BD00000054004000040048BC
:1016700000100240704770470A480068401C094942
:10168000086009480068401C07490860084600686F
:10169000642806D10020086004480068401C034903
:1016A0000860704764000020780000206800002077
:1016B00010B506480068102108430449086000205E
:1016C00000F006F800F018F8002010BD00200240DD
:1016D00070B5044600F08AF906467D21C900FEF780
:1016E00007FD054600F0F4FC00222146501E00F0E4
:1016F00027F8002070BD000008B500BF09488069C8
:10170000012108430749886108468069C007C00F66
:10171000009000BF00BF00221146501E00F010F8DC
:1017200008BD00000010024000BFC206D20E012119
:101730009140024A116000BF7047000000E100E0E4
:1017400070B504460D4616462946204602F0E6F9D5
:1017500070BD0000F8B504460025002601210904EB
:1017600020680840884264D100BF4048C06909032E
:1017700008433E49C8610846C06909040840009012
:1017800000BF00BF3A48006809150843384908609F
:10179000FFF79EFC054606E0FFF79AFC401B642815
:1017A00001D90320F8BD32480068FF21013108400B
:1017B0000028F1D02D48006A0321090208400322C5
:1017C000120261681140884233D02848006A1146ED
:1017D000884306462548006A012109040843234935
:1017E00008620846006A0121090488431F4908620B
:1017F0000846066202203040002811D0FFF768FC3E
:10180000054607E0FFF764FC401B1A49884201D9EE
:101810000320C7E71548006A022108400028F1D0DC
:101820001248006A032109028843616808430F498E
:1018300008622078C007C00F002807D00B48006B53
:1018400080088000A16808430849086320212068B7
:101850000840202807D10548006B10218843E16823
:1018600008430249086300209CE700000010024082
:10187000007000408813000070B504460D46002635
:1018800057480068C007C00FA8420ED254480068ED
:101890004008400028435249086008460068C007D5
:1018A000C00FA84201D0012070BD0221206808406D
:1018B000022807D14B484068F0218843A1680843BB
:1018C000484948602078C007C00F00285FD0606892
:1018D000012808D143480068012149040840002834
:1018E00015D10120E0E76068022808D13D48006872
:1018F000012149060840002809D10120D4E73948D0
:10190000006802210840002801D10120CCE73548B9
:101910004068800880006168084332494860FFF7EA
:10192000D7FB0646606801280FD107E0FFF7D0FB20
:10193000801B2D49884201D90320B5E7294840681A
:101940000C2108400428F1D121E0606802280FD161
:1019500007E0FFF7BDFB801B2349884201D9032024
:10196000A2E7204840680C2108400828F1D10EE089
:1019700007E0FFF7ADFB801B1B49884201D903201C
:1019800092E7184840680C2108400028F1D114481B
:101990000068C007C00FA8420ED91148006840086F
:1019A000400028430E49086008460068C007C00F81
:1019B000A84201D0012077E70421206808400428CC
:1019C00008D108484068072109028843E1680843B4
:1019D000044948600020FFF77BFE002064E7000018
:1019E00000200240001002408813000010B500F0F3
:1019F00025F806494968F02211400909044A515C5A
:101A0000C840044908600846006810BD0010024044
:101A1000E85B0008A800002010B5FFF7E7FF0549C4
:101A20004968072212021140090A034A515CC84062
:101A300010BD000000100240E85B0008F0B589B05E
:101A400024A001460EC9C06805AC0EC4089025A0AC
:101A500001460EC9C06801AC0EC4049000240027E2
:101A60000025002600200090224844680C202040D9
:101A7000002827D0042802D0082822D102E01E48DE
:101A8000009022E00F2080042040800C05A90E5C0D
:101A90001848C06A0007000F01A90F5C012000046C
:101AA000204001210904884206D139461248FEF738
:101AB0001FFB7043054602E010483546454300953C
:101AC00003E000BF0C48009000BF00BF009809B0C1
:101AD000F0BD000002030405060708090A0B0C0DFF
:101AE0000E0F10100102030405060708090A0B0C6B
:101AF0000D0E0F100010024000127A0000093D0088
:101B000038B5044600252078C007C00F00286ED0E5
:101B1000FE4840680C21084004280BD0FB48406870
:101B20000840082812D1F9484068012109040840FA
:101B300088420BD1F548006801214904084000287B
:101B4000E5D06068002852D1012038BD00BFEF48C1
:101B50000068012109048843EC49086008460068D0
:101B6000012189048843E949086000BFFFF7B0FA02
:101B7000054606E0FFF7ACFA401B642801D90320B4
:101B8000E3E7E24800680121490408400028F1D158
:101B900000BF6068012806D1DC480068491008438E
:101BA000DA49086032E0606800280ED1D748006842
:101BB000012109048843D5490860084600680121CD
:101BC00089048843D149086020E0606805280FD166
:101BD000CE480068012189040843CC4908600846C2
:101BE0000068012109040843C84908600EE036E096
:101BF000C6480068012109048843C44908600846B2
:101C00000068012189048843C049086000BF6068FA
:101C1000002812D0FFF75CFA054606E0FFF758FAF5
:101C2000401B642801D903208FE7B84800680121D0
:101C3000490408400028F1D011E0FFF749FA0546B1
:101C400006E0FFF745FA401B642801D903207CE732
:101C5000AE4800680121490408400028F1D1022162
:101C600020680840022861D1A84840680C2108403B
:101C700000280BD0A5484068084008281BD1A3487D
:101C80004068012109040840002814D19F480068D9
:101C900002210840002804D0E068012801D001207A
:101CA00053E79A480068F82188432169C90008432E
:101CB000964908603AE0E068002820D09348006820
:101CC0000121084391490860FFF702FA054606E042
:101CD000FFF7FEF9401B022801D9032035E78B48A6
:101CE0000068022108400028F2D088480068F821E6
:101CF00088432169C90008438449086016E0834885
:101D000000684008400081490860FFF7E1F9054696
:101D100006E0FFF7DDF9401B022801D9032014E794
:101D20007A480068022108400028F2D10821206882
:101D30000840082831D1206A002817D07348406A2B
:101D40000121084371494862FFF7C2F9054606E0E0
:101D5000FFF7BEF9401B022801D90320F5E66B48C6
:101D6000406A022108400028F2D016E06748406A25
:101D70004008400065494862FFF7AAF9054606E0B9
:101D8000FFF7A6F9401B022801D90320DDE65F48D2
:101D9000406A022108400028F2D10421206808404E
:101DA000042870D100BF5948C069890608435749C3
:101DB000C8610846C06909040840009000BF00BF20
:101DC000534800680915084351490860FFF780F936
:101DD000054606E0FFF77CF9401B642801D9032083
:101DE000B3E64B480068FF21013108400028F1D0DC
:101DF00000BF4648006A400840004449086208465F
:101E0000006A042188434149086200BFFFF760F976
:101E1000054607E0FFF75CF9401B3E49884201D9BF
:101E2000032092E63948006A022108400028F1D1D7
:101E300000BFA068012806D13448006A0121084388
:101E4000324908622CE0A06800280CD12F48006AB3
:101E5000400840002D4908620846006A0421884372
:101E60002A4908621CE0A06805280DD12748006AAD
:101E700004210843254908620846006A01210843F5
:101E8000224908620CE034E02048006A4008400023
:101E90001E4908620846006A042188431B490862FB
:101EA00000BFA068002812D0FFF712F9054607E02E
:101EB000FFF70EF9401B1749884201D9032044E679
:101EC0001248006A022108400028F1D011E0FFF713
:101ED000FFF8054607E0FFF7FBF8401B0D49884275
:101EE00001D9032031E60948006A02210840002890
:101EF000F1D1102120680840102860D160690128C4
:101F00002DD10248406B0421084305E00010024037
:101F10000070004088130000624948630846406B27
:101F2000012108435F494863FFF7D2F8054606E000
:101F3000FFF7CEF8401B022801D9032005E65948D7
:101F4000406B022108400028F2D05648406BF8212F
:101F50008843A169C9000843524948632FE060697A
:101F6000401D00280FD14F48406B042188434D4944
:101F700048630846406BF8218843A169C9000843BB
:101F8000484948631BE04748406B042108434549E2
:101F900048630846406B400840004863FFF798F8E4
:101FA000054606E0FFF794F8401B022801D90320FC
:101FB000CBE53C48406B022108400028F2D1606A22
:101FC00000286CD0374840680C210840082864D0AD
:101FD000606A022847D13348006801210906884316
:101FE00030490860FFF774F8054606E0FFF770F81F
:101FF000401B022801D90320A7E52A4800680121D7
:10200000490608400028F1D100BF2648C06A0009EF
:102010000001216B08432349C862A16AE06A0843B2
:10202000204949683D221204914308431D494860F4
:1020300000BF0846006801210906084319490860E5
:10204000FFF746F8054606E0FFF742F8401B022876
:1020500001D9032079E513480068012149060840A9
:102060000028F1D01BE00F480068012109068843D1
:102070000C490860FFF72CF8054606E0FFF728F842
:10208000401B022801D903205FE5064800680121B2
:10209000490608400028F1D101E0012055E5002063
:1020A00053E5000000100240042806D106490969E2
:1020B00004221143044A116105E00349096904221D
:1020C0009143014A1161704700E000E07047000051
:1020D00070B504462546681E0949884201D9012089
:1020E0000CE0681E074948610321081F01F016FD36
:1020F00000200449886107200861002070BD0000AD
:10210000FFFFFF0000E000E010B5FFF7DFFF10BDAC
:1021100070477047024600BF3820805C012801D11B
:102120000220704701233820835400BF0223392046
:1021300083544B68086818438B681843CB6818436E
:102140000B6918434B6918438B691843136858642B
:1021500001233920835400BF00233820835400BF5B
:102160000020DEE710B50446002C01D1012010BD8F
:102170003920005D002805D1002138200155204676
:1021800000F00CF8022139200155211D206802F0D1
:1021900065F80121392001550020E8E738B50446EB
:1021A0002A492068884216D100BF2948C06989158C
:1021B00008432749C8610846C0698915084000904E
:1021C00000BF00BF002201211320FFF7B9FA13203E
:1021D000FFF7AAFA38E01F492068884218D100BFEB
:1021E0001B48806901214904084319498861084650
:1021F0008069012149040840009000BF00BF00220F
:1022000001211520FFF79CFA1520FFF78DFA1BE03E
:1022100011492068884217D100BF0D48806901210B
:10222000890408430A4988610846806901218904B4
:102230000840009000BF00BF002201211620FFF7D8
:102240007FFA1620FFF770FA38BD0000002000402A
:10225000001002400044014000480140704710B5A2
:1022600004462068006902210840400800281CD06C
:102270002068C06808404008002816D0481F216820
:10228000086101202076206880698007800F00287F
:1022900003D02046FFF7E2FF05E0204600F0FEF8FD
:1022A000204600F093F90020207620680069042180
:1022B0000840800800281DD02068C06808408008B9
:1022C000002817D0C84321680861022020762068C2
:1022D0008069032109020840002803D02046FFF747
:1022E000BDFF05E0204600F0D9F8204600F06EF969
:1022F000002020762068006908210840C0080028D6
:102300001CD02068C0680840C008002816D0C84308
:1023100021680861042020762068C0698007800F4A
:10232000002803D02046FFF799FF05E0204600F083
:10233000B5F8204600F04AF90020207620680069B0
:1023400010210840000900281DD02068C0680840FE
:102350000009002817D0C8432168086108202076AA
:102360002068C069032109020840002803D02046E4
:10237000FFF774FF05E0204600F090F8204600F0DB
:1023800025F90020207620680069C007C00F0121D0
:102390004840484000280CD02068C06808404840A9
:1023A0004840002805D0C81E21680861204600F07A
:1023B0000FF92068006980210840C00900280BD06F
:1023C0002068C0680840C009002805D0C8432168BB
:1023D00008612046FFF79CFE206800694021084004
:1023E000800900280BD02068C068084080090028B8
:1023F00005D0C84321680861204600F0FBF820683A
:10240000006920210840400900280BD02068C068DE
:1024100008404009002805D0C843216808612046CB
:10242000FFF777FE10BD70B504460E46154600BF97
:102430003820005D012801D1022070BD0121382023
:10244000015500BF022139200155002D06D0042D71
:1024500009D0082D0CD00C2D14D10EE03146206887
:1024600001F04CFF0FE03146206801F099FF0AE0CF
:102470003146206801F0EEFF05E03146206802F0A9
:1024800041F800E000BF00BF01213920015500BF25
:1024900000213820015500BF0020CEE710B50446CA
:1024A0000C48844215D00C48844212D10B48008855
:1024B000002806D10A4800880121C90208400028E6
:1024C00007D0074800884005400D012801DD00F0D5
:1024D0009DFA10BDE80000206001002018000020D7
:1024E0000600002010B50446002C01D1012010BDCB
:1024F0003920005D002805D10021382001552046F3
:1025000000F00CF8022139200155211D206801F04E
:10251000A5FE0121392001550020E8E770470000A1
:1025200030B504460D46002D06D0042D0BD0082DE5
:1025300010D00C2D1CD114E02068C0680221084383
:102540002168C86015E02068C0680421084321683C
:10255000C8600EE02068C068082108432168C86090
:1025600007E02068C068102108432168C86000E0C7
:1025700000BF00BF01222946206801F0B1FE1049CA
:102580002068884207D00F492068884203D00E494E
:102590002068884201D1012000E00020002806D0F8
:1025A0002068406C0121C903084321684864206801
:1025B00000680121084321680860002030BD000048
:1025C000002C0140004401400048014070470000D9
:1025D00010B504460548844207D110210448FEF78F
:1025E0006DFD20210248FEF769FD10BDE8000020C6
:1025F000000400487047000010B504460820216818
:102600000862042021680862022021680862042010
:10261000216808622068806840084000216888605E
:1026200001220249204600F00BF910BD6000002095
:1026300010B504462068C069C007C00F00280FD03D
:1026400020680068FF2101310840002808D00120DF
:1026500021680862E06E01210843E06669200155A7
:102660002068C0690221084000280FD020688068D7
:10267000C007C00F002809D0022021680862E06E60
:1026800004210843E0660121692001552068C069E2
:102690000421084000280FD020688068C007C00FC0
:1026A000002809D0042021680862E06E0221084356
:1026B000E0660121692001552068C06908210840B1
:1026C00000280FD020688068C007C00F002809D0FC
:1026D000082021680862E06E08210843E0660121B5
:1026E00069200155E06E002802D02046FFF784FFE4
:1026F0002068C0692021084000280DD020680068AB
:102700000840002808D0204602F037F92068806988
:1027100008210843216888612068C0698021084039
:10272000002807D0206800680840002802D0204612
:1027300002F046FA2068C06940210840002807D00E
:10274000206800680840002802D0204602F0FDF80A
:1027500010BD10B50446002C01D1012010BDA069A8
:10276000002800D000E000BF6920005D002805D1EE
:10277000002168200155204600F02CF80221692034
:102780000155206800684008400021680860204624
:1027900002F048F9012800D1E0E7606A002802D081
:1027A000204602F04DF8206840680121C9028843A4
:1027B0002168486020688068082188432168886013
:1027C000206800680121084321680860204602F063
:1027D000AFF8C3E710B586B00446174920688842B1
:1027E00027D100BF15488069012189030843134997
:1027F000886108468069012189030840009000BF74
:1028000000BF0320400201900220029001200390AB
:10281000032004900120059001A90920C006FEF7BD
:1028200055FB002201211B20FEF78AFF1B20FEF72B
:102830007BFF06B010BD00000038014000100240D0
:1028400010B503466920C05C012803D06920C05C34
:1028500012285AD1002901D0002A01D1012010BD2F
:1028600000BF6820C05C012801D10220F7E70124E5
:102870006820C45400BF59655820C2525A20C25221
:1028800000BF24039868A0420AD11869002803D128
:102890001F4C5C20C45210E0FF245C20C4520CE0AA
:1028A0009868002809D11869002803D1FF245C200A
:1028B000C45202E07F245C20C45200BF0020D866CE
:1028C0006920C05C122803D132246920C45402E07C
:1028D00022246920C45418680068FF24013420436E
:1028E0001C68206018688068012420431C68A06070
:1028F00000BF00246820C45400BF1868006820246A
:1029000020431C6820600020A9E70220A7E7000000
:10291000FF01000010B504460949087800F090FE58
:10292000012207492046FFF78BFF002801D0FEF760
:10293000F6F880210920C006FEF7C0FB10BD00009C
:102940006000002010B503466920C05C012803D058
:102950006920C05C22282FD1002901D0002A01D192
:10296000012010BD00BF6820C05C012801D10220F9
:10297000F7E701246820C45400BFD9645020C25234
:102980005220C2520020D8666920C05C222803D1A0
:1029900032246920C45402E012246920C45400BFC8
:1029A00000246820C45400BF1868006880242043B5
:1029B0001C6820600020D4E70220D2E770470000A6
:1029C00010B50E480088002804D1002210210C48C0
:1029D000FEF778FB0B480088002804D10022202154
:1029E0000748FEF76FFB08480088002805D1002241
:1029F00004210920C006FEF765FB10BD0C00002075
:102A0000000400480E0000201000002010B50E4801
:102A10000088002804D1012210210C48FEF752FB47
:102A20000B480088002804D1012220210748FEF726
:102A300049FB08480088002805D10122042109200B
:102A4000C006FEF73FFB10BD0C000020000400484C
:102A50000E00002010000020F1B50098FDF710FED8
:102A600004460022044BFDF76DFD0646FDF79AFE75
:102A700002490860F8BD0000000059404C000020E9
:102A80007FB506460A480068FDF764FE044600224A
:102A9000084BFDF7EFFC0022074B01910090FDF77A
:102AA00037FC03910290FDF713FE30807FBD0000DC
:102AB0004C000020000059400000E03FF1B50098B4
:102AC000FDF7DEFD04460022044BFDF73BFD064604
:102AD000FDF768FE02490860F8BD0000000059409B
:102AE000480000207FB506460A480068FDF732FE20
:102AF00004460022084BFDF7BDFC0022074B019164
:102B00000090FDF705FC03910290FDF7E1FD308098
:102B10007FBD000048000020000059400000E03F59
:102B200010B512480088012804D100221021104855
:102B3000FEF7C8FA0F480088012804D1002220219E
:102B40000B48FEF7BFFA0C480088012805D1002287
:102B500004210920C006FEF7B5FA084800880121C3
:102B6000090388430549088010BD00000C000020BF
:102B7000000400480E000020100000200600002085
:102B800010B512480088012804D1012210211048F4
:102B9000FEF798FA0F480088012804D1012220216D
:102BA0000B48FEF78FFA0C480088012805D1012256
:102BB00004210920C006FEF785FA08480088012193
:102BC000090308430549088010BD00000C000020DF
:102BD000000400480E000020100000200600002025
:102BE00010B50848006880690721090208400028DC
:102BF00003D00448FEF7A9FA02E00248FEF7F5FA0E
:102C000010BD0000AC00002038B5044600BF3420E1
:102C1000005D012801D1022038BD01213420015579
:102C200000BF2068806904210840800800280DD07A
:102C30002068406AC1B2626A501C60621170208DC7
:102C4000401E2085608D401E6085C1E0206880693F
:102C500080210840C009002831D0208D002821D1D2
:102C6000608D00281ED0206840688505AD0D608D00
:102C7000FF280ADD00204B04FF2229460090204651
:102C800000F092FAFF202085A2E000200090608DE5
:102C9000C2B201235B062946204600F085FA608D0A
:102CA000208595E000BF00213420015500BFA06BB6
:102CB00040210843A0632046FEF784FB88E020689B
:102CC0008069402108408009002816D0608D0028C6
:102CD00006D120684068090208432168486077E00F
:102CE00000BF00213420015500BFA06B40210843E4
:102CF000A0632046FEF766FB6AE020688069202119
:102D00000840400900284DD0206880691021084003
:102D10000009002806D010202168C861A06B04219A
:102D20000843A06320680068F42188432168086094
:102D300020202168C861206840682949084021682E
:102D40004860A06B00280DD02021352001550021BE
:102D50003620015500BF3420015500BF2046FEF744
:102D600031FB35E03620005D40280DD12021352093
:102D7000015500213620015500BF3420015500BF08
:102D80002046FEF73FFC23E020213520015500219D
:102D90003620015500BF3420015500BF2046FEF704
:102DA00079FB15E02068806910210840000900289F
:102DB0000ED010202168C86100BF002134200155C9
:102DC00000BFA06B04210843A0632046FEF7FAFA77
:102DD00000BF00213420015500BF00201CE7000087
:102DE00000E800FE38B5044600BF3420005D01282D
:102DF00001D1022038BD01213420015500BF2068D7
:102E0000806902210840400800280CD0616A481CF3
:102E10006062087821688862208D401E2085608D60
:102E2000401E6085CFE02068806980210840C0098D
:102E3000002831D0208D002821D1608D00281ED09F
:102E4000206840688505AD0D608DFF280ADD0020F3
:102E50004B04FF2229460090204600F0A5F9FF20F0
:102E60002085B0E000200090608DC2B201235B0697
:102E70002946204600F098F9608D2085A3E000BF28
:102E800000213420015500BFA06B40210843A063FE
:102E90002046FEF797FA96E02068806940210840B6
:102EA0008009002816D0608D002806D1206840686F
:102EB000090208432168486085E000BF00213420F2
:102EC000015500BFA06B40210843A0632046FEF7D8
:102ED00079FA78E0206880692021084040090028BC
:102EE0005BD020688069102108400009002806D0C6
:102EF00010202168C861A06B04210843A0632068EA
:102F00000068F22188432168086020202168C86198
:102F1000206840682F49084021684860206880691F
:102F2000C007C00F012148404840002804D1206854
:102F30008069084321688861A06B00280DD020219A
:102F40003520015500213620015500BF34200155A0
:102F500000BF2046FEF736FA35E03620005D4028F7
:102F60000DD120213520015500213620015500BF0B
:102F70003420015500BF2046FEF745FB23E0202109
:102F80003520015500213620015500BF3420015560
:102F900000BF2046FEF77FFA15E020688069102107
:102FA0000840000900280ED010202168C86100BF29
:102FB00000213420015500BFA06B04210843A06309
:102FC0002046FEF7FFF900BF00213420015500BF65
:102FD00000200FE700E800FE10B5044600BF3420D3
:102FE000005D012801D1022010BD012134200155CE
:102FF00000BF2068806910210840000900280FD018
:1030000010202168C86100BF00213420015500BF95
:10301000A06B04210843A0632046FEF7D3F943E0E8
:103020002068806908210840C008002803D00820D3
:103030002168C86138E02068806904210840800860
:1030400000280DD02068406AC1B2626A501C6062DC
:103050001170208D401E2085608D401E608523E00C
:103060002068806920210840400900281CD0206881
:103070000068FE21884321680860206840680121BB
:10308000C90308432168486020202168C8612021C5
:103090003520015500213620015500BF342001554F
:1030A00000BF2046FEF7E6FA00BF0021342001559C
:1030B00000BF002098E710B5044600BF3420005D33
:1030C000012801D1022010BD01213420015500BF8B
:1030D0002068806910210840000900281AD0608DFE
:1030E000002807D110202168C86100BF00213420CA
:1030F000015552E010202168C861A06B04210843EB
:10310000A06300BF00213420015500BF2046FEF718
:1031100059F942E02068806908210840C008002869
:1031200003D008202168C86137E020688069202129
:103130000840400900281DD020680068FE2188430F
:1031400021680860206840680121C903084321689C
:10315000486020202168C8612021352001550021C8
:103160003620015500BF3420015500BF2046FEF730
:1031700082FA12E020688069022108404008002895
:103180000BD0608D002808DD616A481C60620878F9
:1031900021688862608D401E608500BF0021342058
:1031A000015500BF00208EE7F0B50C4600210568F0
:1031B0006968084D2940A505AD0D1604FF273F0499
:1031C0003E4035431D43059E3543294305686960EC
:1031D000F0BD0000009800FC00B587B000BF5F485C
:1031E00040690121890508435C49486108464069F6
:1031F000012189050840019000BF00BF00BF57486A
:103200004069491108435549486108464069012110
:1032100049040840019000BF00BF00BF4F4840690B
:10322000890008434D494861084640690121C904A5
:103230000840019000BF00BF00BF484840694900F6
:10324000084346494861084640690121090508408C
:10325000019000BF00BF00BF40484069891008438B
:103260003E494861084640690121890408400190AF
:1032700000BF00BF0022C0210920C006FDF722FFC9
:10328000002210213648FDF71DFFC02002900120CA
:103290000390002004900320059002A90920C00695
:1032A000FDF714FE8120000202902E4803900020BA
:1032B000049002A90920C006FDF708FE01200003C2
:1032C0000290294803900020049002A90920C0061A
:1032D000FDF7FCFD08200290234803900020049095
:1032E00002A91F48FDF7F2FD102002900120039073
:1032F000002004900320059002A91948FDF7E6FD7F
:103300002020029002A91648FDF7E0FD042002905B
:1033100002A90920C006FDF7D9FD0120C0020290D4
:1033200002A90920C006FDF7D1FD00220121C90232
:103330000920C006FDF7C6FE002211460720FEF751
:10334000FFF90720FEF7F0F9002211460620FEF7EC
:10335000F7F90620FEF7E8F907B000BD00100240BB
:1033600000040048000011100000211010B50C48A6
:103370000C4908600C48486000210A48816001211E
:10338000C1600021016141618161C1610162FEF79B
:103390001DF8012109030348FDF7A0FE10BD000040
:1033A00000540040AC0000202D1D1000F0B587B087
:1033B00016481749086017480068FDF761F9044688
:1033C000154A164BFDF756F80646FDF7A5F980B2EB
:1033D000401E0F49486000210D4881601049C160BE
:1033E00000210161FEF7BEFE0948FFF77BF80020CF
:1033F00000900C4801900020029004900022694641
:103400000348FFF710F807B0F0BD000000200040AF
:10341000E8000020A8000020F168E388B5F8E43E49
:10342000FFFF000041030000F0B58FB020482149A4
:10343000086021480068FDF723F904461F4A204B25
:10344000FDF718F80646FDF767F980B2401E1949E6
:1034500048600021174881601A49C160002101615C
:103460004161FEF77FFE1348FFF73CF8002008900B
:1034700009900A900B900C90012040030D900020C1
:103480000E9008A90B48FEF745FE00200190FF2092
:10349000A1300290002003900490059006900790C0
:1034A000002201A90348FEF7BEFF0FB0F0BD0000E7
:1034B0000044014060010020A8000020F168E3887A
:1034C000B5F8E43EFFFF0000F8B50F480F4908606B
:1034D0000F480068FDF7D4F804460E4A0E4BFCF77F
:1034E000C9FF0646FDF718F980B2401E074948603B
:1034F0000021064881600949C160002101614161E4
:10350000FEF730FEF8BD0000004801409C0100209D
:10351000A8000020F168E388B5F8E43EFFFF000052
:1035200010B50C480C4908604B20C00148600021D0
:1035300009488160C16001610C2141610021816104
:10354000C16101620020044948620846FFF701F9A1
:1035500010BD000000380140D8010020F0B504463D
:10356000059D0F480078202801DB0020F0BD0C48A5
:1035700000781C2778430A4F3F1DC619002E01D141
:103580000020F3E77460B1600020B073B261336172
:10359000756103480078401C014F38703046E5E7FC
:1035A000A402002038B50546002436E01C20604304
:1035B0001D4940188068A8422DD11C206043401846
:1035C0008069002816D01C206043401840690028FC
:1035D00009D01C2262430B46D21890691C22624318
:1035E000D218516988471C2060430F4940188069F0
:1035F000008838BD1C2060430B49401840690028F2
:1036000006D01C2060430A468018416968468847F6
:1036100068460088EDE7601CC4B20348001F0078CC
:10362000A042C3DC0020E4E7A802002002490870A1
:103630000021024A1170704796000020A402002069
:1036400010B504468F48007800280CD18E480078C9
:10365000844207D101208B490870FDF743FA2046C8
:1036600001F0F4FA0DE187480078012814D1042C08
:1036700005D0032C03D0062C01D0102C08D1022039
:1036800080490870204601F0E1FA80480470F8E0B3
:1036900000207C490870F4E07A480078022809D1BB
:1036A00020027B490880204601F0D0FA03207549AA
:1036B0000870E6E07348007803281AD1744800883F
:1036C000204373490880204601F0C0FA6F48007813
:1036D00006280AD101206F490880084600886E49F3
:1036E0000880092067490870CBE00420654908700C
:1036F000C7E064480078042809D1200265490880A1
:10370000204601F0A3FA05205E490870B9E05D4843
:10371000007805281FD15F48008820435D49088054
:10372000084600885C490880204601F08FFA574817
:103730000078102803D1082052490870A1E05348AE
:103740000078062803D109204E49087099E0062028
:103750004C49087095E04B480078062806D12002B5
:103760004E4908800720474908708AE0454800789C
:10377000072844D149480088204348490880FDF77C
:103780006DFA46490988884235D1404800780428B6
:1037900003D03E480078032806D13E4801883C48C3
:1037A000008800F081F80FE03848007806280BD137
:1037B0003B4801883648008800F022F935480188E6
:1037C0003348008800F0BEF830480078102812D145
:1037D00000F068F9324801882D48008800F010F99F
:1037E0002B4909882B4A1288891A491C88B2294911
:1037F000098800F0A7F800202249087041E021481C
:103800000078082808D127480470204601F01EFAE5
:1038100009201C49087034E01A480078092809D1A9
:1038200020021F490880204601F010FA0A2015499D
:10383000087026E0134800780A2822D1184800882A
:10384000204317490880204601F000FA12480088FA
:10385000401E1149088008460088002803D1062030
:10386000084908700DE00E4801880948008800F0FA
:10387000F9F807480088401C0549088009200149DB
:10388000087010BDA60000209600002097000020C0
:103890009C0000209E000020A0000020A20000202C
:1038A0009A00002098000020F8B507460D46002633
:1038B0000024FDF717F901F027FA2048007801F0FD
:1038C000C5F9009001F028FA1D48007801F0BEF912
:1038D000009001F021FA6906080E01F0B7F9009096
:1038E00001F01AFA00BF12E0B91988B2FFF75AFEC8
:1038F0000446201201F0AAF9009001F00DFAE0B29E
:1039000001F0A4F9009001F007FA701C86B2AE42F3
:10391000EADBFDF7A3F90446FF2109022140081262
:1039200001F094F9009001F0F7F9E0B201F08EF99E
:10393000009001F0F1F901F0F9F9F8BD96000020CE
:1039400097000020F8B504460D4600270026FDF735
:10395000C9F801F0D9F92748007801F077F900900B
:1039600001F0DAF92448007801F070F9009001F0D4
:10397000D3F9201201F06AF9009001F0CDF9E0B21C
:1039800001F064F9009001F0C7F91B48007806289F
:103990000FD11A490988081201F058F9009001F076
:1039A000BBF91649087801F051F9009001F0B4F91B
:1039B0000BE0281201F04AF9009001F0ADF9E8B2ED
:1039C00001F044F9009001F0A7F9FDF747F9064628
:1039D000FF2109023140081201F038F9009001F08E
:1039E0009BF9F0B201F032F9009001F095F901F085
:1039F0009DF9F8BD96000020970000209A00002055
:103A000070B506460D46002422E01C206043144990
:103A100040188068B04219D11C206043401880696A
:103A2000002804D01C2060434018806905801C20B9
:103A300060430B4940180069002806D01C206043F1
:103A40000A46801801692846884770BD601CC4B2C8
:103A50000348001F0078A042D7DC00BFF5E7000054
:103A6000A802002030B50246002012E01C23434388
:103A70000B4C1B199B68934209D11C2343431B1910
:103A8000998101251C2343431B199D7330BD431CA1
:103A9000D8B2034B1B1F1B788342E7DC00BFF5E75E
:103AA000A802002010B500242FE01C2060431A4912
:103AB0004018807B002826D01C2060434018806975
:103AC000002808D01C206043401882891C206043D5
:103AD0004018806902801C2060430F49401800692B
:103AE000002809D01C2262430B46D21890891C2260
:103AF0006243D2181169884700221C2021464143A5
:103B0000054808188273601CC4B20348001F00787F
:103B1000A042CADC10BD0000A802002010B5002899
:103B200019DA1A4A03071B0F083B9B089B00D2585F
:103B30008307DC0EFF23A3409A438B071B0E8407E9
:103B4000E40EA3401A43114B0407240F083CA408B9
:103B5000A4001A5118E00E4A03231B02D21883084E
:103B60009B00D2588307DC0EFF23A3409A438B07A8
:103B70001B0E8407E40EA3401A43054B03242402C2
:103B80001B198408A4001A5110BD00001CED00E0B0
:103B900000E100E0F1B58EB02B4801680E98FCF70B
:103BA0003BFB0446FCF7D6FD0991089027480068C6
:103BB000FCF7D0FD0591049025480088FCF760FDD6
:103BC00004460022234BFCF7BDFC019100902248E3
:103BD0000068FCF7BFFD0646019B009AFCF74AFC13
:103BE00003910290059B049AFCF744FC0791069010
:103BF000099B089AFCF78CFB0B910A90FCF7D2FD0D
:103C00000C9016490C98FCF7F3FD0BD300210C988F
:103C1000FCF7E4FD06D30D4801680E98FCF7A3FA03
:103C20000A4908600D490C98FCF7E2FD01D20B48E7
:103C30000C9000210C98FCF7D1FD01D200200C90D3
:103C40000C980FB0F0BD00003400002040000020B0
:103C50003C00002000002440380000200000C84242
:103C60001FB5D34C00200090FDF7D0F80020019044
:103C70002046029001200390694601A8FDF708F84C
:103C8000002806D0012240210920C006FDF71AFABB
:103C90001FBDC8480288002321460220FDF758F8BE
:103CA000002806D0012240210920C006FDF70AFAAB
:103CB000EEE7241DC0480288002321460220FDF7BC
:103CC00047F8002806D0012240210920C006FDF750
:103CD000F9F9DDE7241DB9480288002321460220B6
:103CE000FDF736F8002806D0012240210920C00641
:103CF000FDF7E8F9CCE7241DB148028800232146EE
:103D00000220FDF725F8002806D0012240210920D5
:103D1000C006FDF7D7F9BBE7241DAA480288002397
:103D200021460220FDF714F8002806D00122402188
:103D30000920C006FDF7C6F9AAE7241DA248002302
:103D4000214602680220FDF703F8002806D0012270
:103D500040210920C006FDF7B5F999E7241D9B48CD
:103D60000023214602680220FCF7F2FF002806D05B
:103D7000012240210920C006FDF7A4F988E7241D8F
:103D800093480023214602680220FCF7E1FF002847
:103D900006D0012240210920C006FDF793F977E7FC
:103DA000241D8C480023214602680220FCF7D0FF26
:103DB000002806D0012240210920C006FDF782F923
:103DC00066E7241D84480288002321460220FCF770
:103DD000BFFF002806D0012240210920C006FDF7C0
:103DE00071F955E7241D7D48002321460268022011
:103DF000FCF7AEFF002806D0012240210920C006B2
:103E0000FDF760F944E7241D754800232146026848
:103E10000220FCF79DFF002806D001224021092046
:103E2000C006FDF74FF933E7241D6E4802880023D2
:103E300021460220FCF78CFF002806D001224021F9
:103E40000920C006FDF73EF922E7241D66480288D6
:103E5000002321460220FCF77BFF002806D0012228
:103E600040210920C006FDF72DF911E7241D5F4808
:103E70000023214602680220FCF76AFF002806D0D2
:103E8000012240210920C006FDF71CF900E7241D8E
:103E900057480022825ED31721460220FCF758FFC4
:103EA000002806D0012240210920C006FDF70AF9AA
:103EB000EEE6241D4F480288002321460220FCF72D
:103EC00047FF002806D0012240210920C006FDF747
:103ED000F9F8DDE6241D48480022825ED31721460A
:103EE0000220FCF735FF002806D0012240210920DE
:103EF000C006FDF7E7F8CBE6241D40480288002302
:103F000021460220FCF724FF002806D00122402190
:103F10000920C006FDF7D6F8BAE6241D384800226D
:103F2000825ED31721460220FCF712FF002806D03C
:103F3000012240210920C006FDF7C4F8A8E6241D8F
:103F400030480288002321460220FCF701FF0028A8
:103F500006D0012240210920C006FDF7B3F897E6FC
:103F6000241D29480022825ED31721460220FCF737
:103F7000EFFE002806D0012240210920C006FDF7EF
:103F8000A1F885E6241D214802880023214602204D
:103F9000FCF7DEFE002806D0012240210920C006E1
:103FA000FDF790F874E6241DFCF7C8FE00BF6FE62D
:103FB000007800080C0000200E00002010000020F7
:103FC000180000203C0000203000002034000020B9
:103FD000380000202C000020440000204C0000206D
:103FE000480000202A0000201200002014000020B9
:103FF0007C0000207E000020800000208200002045
:104000008400002086000020880000208A00002014
:1040100030480188304A1180001D01882F4A1180E4
:10402000001D01882E4A1180001D01882D4A118033
:10403000001D01882C4A1180001D2C4A0168116066
:10404000001D2B4A01681160001D2A4A0168116099
:10405000001D294A01681160001D0188274A11804E
:10406000001D274A01681160001D264A0168116081
:10407000001D0188244A1180001D0188234A1180F7
:10408000001D234A01681160001D018809B2214A00
:104090001180001D0188204A1180001D018809B28D
:1040A0001E4A1180001D01881D4A1180001D0188D3
:1040B00009B21C4A1180001D01881B4A1180001D95
:1040C000018809B2194A1180001D0188184A11801F
:1040D000001D7047007800080C0000200E00002032
:1040E00010000020180000203C00002030000020BC
:1040F00034000020380000202C0000204400002064
:104100004C000020480000202A000020120000205F
:10411000140000207C0000207E0000208000002091
:1041200082000020840000208600002088000020FB
:104130008A00002010B5FDF79FFAFDF7E5FF10BDDE
:1041400030B595B003200890012009900B90102005
:104150000C9002201190C1031291C104139100210F
:10416000149108A8FDF7CCFC0720049002200590CC
:10417000002006900790012104A8FDF77DFB212077
:1041800000900020029003906846FDF7E3FAFDF7E7
:104190002DFC05467D21C900FBF7AAFF0446FDF76B
:1041A00097FF0420FDF780FF00221146501EFDF707
:1041B000C7FA15B030BD0000194800680121084356
:1041C0001749086008464068164908401449486085
:1041D000084600681449084011490860084600680C
:1041E0000121890488430E490860084640683F2140
:1041F000090488430A4948600846C06A000900016A
:10420000C8620846006BFF211431884304490863E3
:104210000846406B400840004863002088607047B3
:10422000001002400CB8FF08FFFFF6FE10B5024870
:10423000FEF715F810BD0000E800002010B5024898
:10424000FEF70DF810BD00006001002010B5024817
:10425000FEF705F810BD00009C01002010B50022FB
:1042600002681A4B984202D0194B984205D170242B
:104270001346A3431A464B681A43144B98420BD07B
:10428000134B984208D0134B984205D0124B9842DA
:1042900002D0124B984206D1032424021346A343B2
:1042A0001A46CB681A4302608B68C3620B6883624C
:1042B000064B984205D0084B984202D0074B9842D3
:1042C00001D10B6903630123436110BD002C014040
:1042D000000400400020004000440140004801402C
:1042E00030B5002301248C402346046A9C430462B9
:1042F000046A15468D402C43046230BD70B500241D
:1043000000220023056A6D086D000562026A436899
:10431000846970262546B5432C46A408A4000D6880
:104320002C4302261546B5432A468D682A43194D6B
:10433000A84200D107E0184DA84200D103E0174D74
:10434000A8420AD100BF08261546B5432A46CD68C3
:104350002A4304261546B5432A460E4DA84205D0E9
:104360000D4DA84202D00D4DA8420CD1FF260136BA
:104370001D46B5432B4676001D46B5432B464D6979
:104380002B438D692B43436084614D684563026212
:1043900070BD0000002C0140004401400048014075
:1043A00070B5002400220023056A1026B54305627B
:1043B000026A43688469072636032546B5432C46BE
:1043C000032636022546B5432C460D682D022C43A4
:1043D00020261546B5432A468D682D012A431A4DDD
:1043E000A84200D107E0194DA84200D100BF184DE6
:1043F000A8420BD10AE080261546B5432A46CD686F
:104400002D012A4340261546B5432A460E4DA842A3
:1044100005D00E4DA84202D00D4DA8420ED1012666
:10442000B6021D46B5432B4676001D46B5432B46C6
:104430004D69AD002B438D69AD002B434360846112
:104440004D688563026270BD002C0140004401404C
:104450000048014070B5002400220023056AFF26B1
:104460000136B5430562026A4368C4697026254671
:10447000B5432C46A408A4000D682C4301267602FF
:104480001546B5432A468D682D022A431A4DA84287
:1044900000D107E0194DA84200D100BF184DA84235
:1044A0000CD10BE00126F6021546B5432A46CD682D
:1044B0002D022A4376101546B5432A460E4DA842D2
:1044C00005D00E4DA84202D00D4DA8420ED10126B6
:1044D00036031D46B5432B4676001D46B5432B4695
:1044E0004D692D012B438D692D012B434360C46120
:1044F0004D68C563026270BD002C0140004401405C
:104500000048014070B5002200230024056A0126FE
:104510003603B5430562036A4468C2690726360359
:104520001546B5432A46032636021546B5432A46A4
:104530000D682D022A43012676031D46B5432B46FE
:104540008D682D032B430B4DA84205D00A4DA84280
:1045500002D00A4DA84207D10126B6032546B5432D
:104560002C464D69AD012C434460C2614D68056421
:10457000036270BD002C014000440140004801402E
:10458000F1B50098FCF77CF804460022044BFBF7D9
:10459000D9FF0646FCF706F902490860F8BD00009D
:1045A00000005940300000207FB506460A480068E8
:1045B000FCF7D0F804460022084BFBF75BFF002213
:1045C000074B01910090FBF7A3FE03910290FCF7CB
:1045D0007FF830807FBD000030000020000059408F
:1045E0000000E03FF1B50098FCF74AF804460022CD
:1045F000044BFBF7A7FF0646FCF7D4F80249086016
:10460000F8BD000000408F40380000207FB506460E
:104610000A480068FCF79EF804460022084BFBF7A6
:1046200029FF0022074B01910090FBF771FE0391D7
:104630000290FCF74DF830807FBD0000380000206C
:1046400000408F400000E03FF1B50098FCF718F8FB
:1046500004460022044BFBF775FF0646FCF7A2F860
:1046600002490860F8BD00000000594034000020F5
:104670007FB506460A480068FCF76CF8044600223D
:10468000084BFBF7F7FE0022074B01910090FBF768
:104690003FFE03910290FCF71BF830807FBD0000C5
:1046A00034000020000059400000E03FF1B50098C0
:1046B000FBF7E6FF04460022044BFBF743FF0646E8
:1046C000FCF770F802490860F8BD0000000059408E
:1046D0002C0000207FB506460A480068FCF73AF82F
:1046E00004460022084BFBF7C5FE0022074B019150
:1046F0000090FBF70DFE03910290FBF7E9FF30807D
:104700007FBD00002C000020000059400000E03F69
:1047100010B512480088022804D100221021104848
:10472000FCF7D0FC0F480088022804D10022202189
:104730000B48FCF7C7FC0C480088022805D1002272
:1047400004210920C006FCF7BDFC084800880121AF
:10475000490388430549088010BD00000C00002073
:10476000000400480E000020100000200600002079
:104770003C214143014A11607047000014000020B1
:1047800010B504463C2103480068FBF7B1FC2080CB
:1047900010BD00001400002010B512480088022847
:1047A00004D1012210211048FCF78CFC0F4800882E
:1047B000022804D1012220210B48FCF783FC0C487D
:1047C0000088022805D1012204210920C006FCF737
:1047D00079FC0848008801214903084305490880FD
:1047E00010BD00000C000020000400480E00002056
:1047F000100000200600002010B588B004460020FC
:1048000001900C490968614308467D21C900FBF706
:1048100085FC08490968081A074909684018029088
:10482000002003900590002201A90448FDF7FBFD3C
:1048300008B010BD580000205C000020600100207E
:10484000818CC907C90F002908D001684968012275
:1048500052049143826A1143026851600222416A04
:104860001140002907D001684968D2039143C26A08
:104870001143026851600422416A1140002907D0A7
:104880000168496812049143026B11430268516048
:104890000822416A1140002907D0016849681203C3
:1048A0009143426B1143026851601022416A1140EA
:1048B000002907D00168896812029143826B114375
:1048C000026891602022416A1140002907D00168E6
:1048D000896812029143C26B1143026891604022C1
:1048E000416A1140002915D001684968920391433B
:1048F000026C11430268516001221205016C914261
:1049000008D101684968032252059143426C114362
:10491000026851608022416A1140002907D0016875
:10492000496812039143826C1143026851607047D9
:1049300001460020C86601226920425400BF0022BF
:104940006820425400BF0020704710B5044620681C
:10495000006840218843216808606920005D322892
:1049600003D122216920015502E00121692001556E
:104970002046FEF723F8002010BD70B504465C20E9
:10498000065B6920005D222803D06920005D322883
:1049900045D101210903A06888420BD12069002874
:1049A00008D1656D2068808C30402880606D801C47
:1049B000606507E02068808CF1B20840626D511C90
:1049C000616510705A20005B401E81B25A2001536D
:1049D000002922D1206800682021884321680860CE
:1049E0006920005D322803D11221692001550FE0B2
:1049F00020680068FF210131884321680860206831
:104A000080684008400021688860012169200155C4
:104A10002046FDF77FFF002070BD0020FCE702204C
:104A2000FAE70000FEB50446002510260027002006
:104A3000029001902169A068084361690843E16917
:104A40000843054620680068584908402843216803
:104A5000086020684068032109038843E16808432F
:104A600021684860216AA06908430546206880687B
:104A70000B210902884328432168886000BF4C4805
:104A8000006B8007800F002806D0012808D002287C
:104A900008D0032808D101E0002607E0022605E03F
:104AA000042603E0082601E0102600BF00BF00BF77
:104AB0000121C903E06988423FD1042E1BD004DCE8
:104AC000002E07D0022E28D10EE0082E1DD0102E69
:104AD00023D123E0FCF7A0FF400000906168FBF7C2
:104AE00007FB80B202901CE032486168FBF700FBD4
:104AF00080B2029015E0FCF7A1FF400000906168D1
:104B0000FBF7F6FA80B202900BE001200004616826
:104B1000FBF7EEFA80B2029003E000BF01200190A3
:104B200000BF00BF244902980840074602980007CA
:104B3000400F07432068C76035E0042E1CD004DC1A
:104B4000002E07D0022E29D10EE0082E1ED0102EE6
:104B500024D124E0FCF760FF00906168FBF7C8FAFD
:104B600080B22168C8601DE014486168FBF7C0FA94
:104B700080B22168C86015E0FCF760FF00906168B2
:104B8000FBF7B6FA80B22168C8600BE00120C003D1
:104B90006168FBF7ADFA2168C86003E000BF01203F
:104BA000019000BF00BF0198FEBD0000F369FFFF48
:104BB000001002400024F400F0FF000000127A0010
:104BC00001466920405C122803D06920405C3228ED
:104BD00031D15220405A00280DD108680068802346
:104BE00098430B68186008680068402318430B68F6
:104BF00018600020704701231B03886898420CD17D
:104C00000869002809D1CA6C1088C005C00D0B685E
:104C10001885C86C801CC86405E0CB6C581CC8643F
:104C200018780B6818855220405A401E83B25220D3
:104C300043520020DEE70220DCE7000010B5024806
:104C4000FDF7F6FC10BD0000D8010020074A1278DD
:104C500042401146064A525C064B1B785A40034BB1
:104C60001A70054A525C034B1A707047A40000206A
:104C7000E8590008A5000020E85A00082021020C8D
:104C800001D010211046020A01D01046083902094D
:104C900001D01046091F820801D01046891E420823
:104CA00001D0881E7047081A704702E008C8121F1A
:104CB00008C1002AFAD170477047002001E001C105
:104CC000121F002AFBD17047002101644164704724
:104CD00010B50246136C581CC417A40E2418A41156
:104CE000A401041B536CA34201D1002010BD106C21
:104CF0001154136C581CC3179B0E1B189B119B015E
:104D0000C31A13640120F1E700B50248FFF7DCFF86
:104D100000BD00005C02002010B504462146024898
:104D2000FFF7D6FF10BD00005C02002010B506485A
:104D3000006C82B204490548FDF704FE002801D04A
:104D4000FBF7EDFE10BD00005C020020D801002042
:104D500098B0FCF7ADFCFFF7F3F9FEF73DFAFEF76C
:104D600005FBFEF7B1FBFEF7DBFBFEF71FFBFEF7D3
:104D70005BFBD148FFF7A8FF0620FEF757FC002099
:104D80000346CE4A01460090CDA0FEF7E7FB002087
:104D90000346CE4A01210090CDA0FEF7DFFB0020A4
:104DA0000346CE4A02210090CDA0FEF7D7FB00209B
:104DB0000346CD4A03210090CCA0FEF7CFFB002094
:104DC0000346CE4A04210090CDA0FEF7C7FB002089
:104DD0000346CE4A05210090CDA0FEF7BFFB002080
:104DE0000346CE4A06210090CDA0FEF7B7FB002077
:104DF0000346CE4A07210090CDA0FEF7AFFB00206E
:104E00000346CF4A08210090CEA0FEF7A7FBD24868
:104E1000D24B002209210090D1A0FEF79FFBD6487B
:104E2000D64B00220A210090D5A0FEF797FBD84868
:104E3000D84B00220B210090D7A0FEF78FFBDA4859
:104E4000DA4B00220C210090D9A0FEF787FB00204E
:104E50000346DB4A0D210090DAA0FEF77FFBDE4817
:104E6000DE4B00220E210090DDA0FEF777FBE1482B
:104E7000E14B00220F210090E0A0FEF76FFB002025
:104E80000346E34A10210090E2A0FEF767FB0020F2
:104E90000346E54A11210090E4A0FEF75FFBE848D5
:104EA000E84B002212210090E7A0FEF757FB0020FC
:104EB0000346EA4A13210090E9A0FEF74FFB0020C9
:104EC0000346ED4A14210090ECA0FEF747FB0020BA
:104ED0000346EF4A15210090EEA0FEF73FFB0020AD
:104EE0000346F24A16210090F1A0FEF737FB00209E
:104EF0000346F44A17210090F3A0FEF72FFB002091
:104F00000346F74A18210090F6A0FEF727FB002081
:104F10000346F94A19210090F8A0FEF71FFB002074
:104F20000346FC4A1A210090FBA0FEF717FB002065
:104F3000FE4B02461B210090FDA0FEF70FFBFFF782
:104F400067F8FE488068FF2101310843FB4988600B
:104F50000021FB48FDF7E4FAF848C0680121490444
:104F60000843F649C8600021F648FDF7D9FA012246
:104F7000F549F648FDF764FC002801D0FBF7CFFDAA
:104F8000F7E3F3480068F349096888422BD3534894
:104F90000088401C51490880EE4800680A30ED49FD
:104FA0000860ED48007800280DD04C4800889E49E4
:104FB0000988884215DD0020E749087047490880C4
:104FC000FFF7A6FB0DE045480088E44909688842E0
:104FD00007D90120E0490870002040490880FFF708
:104FE000DBFBFBF7E7FCDA480068DD49096888422B
:104FF0005ED3DB480068524909884018D8490860E8
:1050000000F046FC0446D7492046FBF705F9054663
:10501000FBF744FB00B2294908803348008801218E
:10502000C902084000282ED12146CF480068FBF76E
:10503000EBF807463D480088012825D13846FEF7A1
:10504000A9FD0446C9492046FBF7E6F80546FBF7EB
:1050500025FB4005400D24490988C90AC9020843B7
:1050600021490880084600884005400D012805DDDB
:1050700009884805400DFFF7BFFB01E0FDF7A0FCE4
:105080000020BB49087011E328480088002810D18F
:10509000B84800680121C907484005463946FBF772
:1050A000A7FB07D210480088C00AC0020E4963E17E
:1050B00038E37AE164E100005C0200200000002097
:1050C00074656D7065726174757265000200002010
:1050D00068756D696469747900000000040000203F
:1050E00074696D6572000000060000206F757470B1
:1050F0007574207374617465000000000C0000205A
:10510000434830206D617070696E67000E000020AA
:10511000434831206D617070696E67001000002097
:10512000434832206D617070696E6700180000207E
:1051300054656D702E4374726C2074797065000034
:105140003C00002054656D702E4374726C20696EB3
:1051500074657276616C0000A945000881450008FD
:1051600054656D702E4374726C2068797374657227
:105170006573697300000000714600084946000825
:1051800054656D702E4374726C204B7000000000EB
:105190000D460008E545000854656D702E43747295
:1051A0006C204B6900000000D5460008AD460008A1
:1051B00054656D702E4374726C2052656600000059
:1051C0004400002048756D2E4374726C20696E7423
:1051D000657276616C000000812A0008592A000877
:1051E00048756D2E4374726C206C6F772076616CFD
:1051F00075650000E52A0008BD2A000848756D2E77
:105200004374726C2075702076616C7565000000C7
:105210002A00002048756D2E4374726C20696E76EA
:10522000657274206F7574001200002054696D65FA
:1052300072206F6E20696E74657276616C0000007A
:10524000814700087147000854696D6572206F66D8
:105250006620696E74657276616C00007C000020C7
:1052600050726F74656374696F6E204F545020766E
:10527000616C7565000000007E00002050726F7444
:10528000656374696F6E204F54502074696D6500BA
:105290008000002050726F74656374696F6E2055D2
:1052A00054502076616C756500000000820000207B
:1052B00050726F74656374696F6E2055545020741A
:1052C000696D65008400002050726F7465637469B5
:1052D0006F6E204F48502076616C756500000000AD
:1052E0008600002050726F74656374696F6E204F82
:1052F00048502074696D65008800002050726F74FA
:10530000656374696F6E205548502076616C7565D1
:10531000000000008A00002050726F746563746999
:105320006F6E205548502074696D6500510C00085F
:10533000466C61736820777269746500005801409B
:10534000E80000206001002060000020D80100205B
:10535000680000206C0000200A00002014000020DB
:10536000700000200000C8422C00002000002041F6
:105370001A000020300000200880FDF721FB10E01B
:10538000FC4801683846FBF733FA0AD2FA4800882D
:10539000C00AC0027D21C9004018F7490880FDF706
:1053A00035FB0020F549087080E1F44800780028BA
:1053B0000FD1F3490860F3490860F3490860012000
:1053C000EE490870EC480088C00AC002EA4908802B
:1053D0005DE1EA48007801287ED1EC480078002899
:1053E00005D0E8480068401CE649086004E0E6484B
:1053F0000068401CE4490860DE4800680121C907D4
:10540000484005463946FBF7F3F966D2DA4800888A
:10541000C00AC002D8490880FDF7D2FADB480078FC
:1054200000287CD0D6480068401CD5490860084652
:105430000068052874D1D3480068D349096840182A
:10544000002802D13F24240610E0CE490968CE4A44
:1054500012688818FBF7EEF80546CA480068FBF7A3
:10546000E9F806462946FAF714FF04462046FBF7FA
:1054700071F90546C64AC74BFAF7FCFF0F910E902B
:105480002046FBF767F905460E462046FBF762F912
:10549000C14AC24B05910490FAF7ECFF2A46334605
:1054A00007910690FAF7E6FF0B910A902046FBF76A
:1054B00051F905460E462046FBF74CF9059104903C
:1054C0002046FBF747F9B64AB64B01910090FAF730
:1054D000D1FF0391029001E09DE087E0059B049AD3
:1054E000FAF7C8FF2A46334607910690FAF7C2FF3B
:1054F000099108900B9B0A9AFAF70AFF0D910C90FC
:105500000F9B0E9AFAF7A8FFA34AA74B1191109090
:10551000FAF7FEFEA54AA64B1391129001E061E056
:105520005BE0FBF70FF80022A24B15911490FAF7FD
:1055300099FF17911690FBF735F904469E480088AD
:10554000FBF79EF8054600229C4BFAF7FBFF1591EE
:1055500014909B480068FBF7FDF813911290159B7F
:10556000149AFAF787FF49004908964A964B179113
:105570001690FBF703F92AD28F480088FBF780F8D2
:1055800000228E4B0F910E90FAF7DCFF13911290D0
:105590008B480068FBF7DEF811911090139B129A6C
:1055A000FAF768FF1591149021468848FAF734FEFF
:1055B0001390FBF7CFF80546159B149AFAF7C2FF34
:1055C00017911690FBF7EEF88149086002E0002081
:1055D0007F49086003206949087000206949086014
:1055E0006949086000206949087050E06148016815
:1055F0003846FBF7FDF84AD25F480088C00AC0026F
:105600007D21C90040185C490880FDF7FFF90120A1
:105610005E4908703BE059480078032837D1384686
:10562000FEF7B8FA04466B492046FAF7F5FD054641
:10563000FBF734F84005400D4F490988C90AC902F3
:1056400008434D490880084600884005400D012860
:1056500005DD09884805400DFFF7CEF801E0FDF7AC
:10566000AFF9444800680121C9074840054639465A
:10567000FBF7BEF802D20020404908703D4801689F
:105680003846FBF7B5F802D200203C4908703A488A
:1056900000884005400D012806DD37490988480586
:1056A000400DFFF7A9F801E0FDF78AF93846FBF74E
:1056B00051F8490049080546002201239B07FBF7E2
:1056C0005DF825D244480068401C434908603A48C8
:1056D0000088FAF7D5FF0022384B13911290FAF7A1
:1056E00031FF05462A460B4600203C49FAF72AFFBF
:1056F0001791169038480068FAF7AEFF159114908C
:10570000179B169AFBF73AF807D8FBF752F904E013
:10571000002031490860FBF74BF980210920C006C1
:10572000FBF7CCFC2E4800682E490968884275D3E7
:105730002C4800682C49098840182A49086000F064
:1057400005F9044621492046FAF766FD0546FAF7B1
:10575000A5FF00B225490880254801682046FBF7CF
:105760003DF84CD223480088002845D1FDF708FABF
:1057700054E084E030000020060000201A000020E1
:105780001C00002020000020240000202800002011
:10579000B81E85EB51B81240295C8FC2F5281B401A
:1057A000E5D022DBF9FE11C0F52806404AD8124D9B
:1057B000FB2109400000F03F3C0000200000244095
:1057C00038000020FCA9F1D24D62503F0000C842D1
:1057D00040000020000020415400002000209C4098
:1057E0006800002074000020440000200200002017
:1057F0004C0000202A000020FDF792F90EE021481D
:1058000001682046FAF7F4FF08D21F4800880028F4
:1058100002D1FDF785F901E0FDF7B2F91B480088D8
:105820000121C9020840002829D0184800884005F5
:10583000400D012806DD154909884805400DFEF791
:10584000DBFF01E0FDF7BCF81048008801210903E7
:105850000840002802D0FDF793F901E0FDF760F958
:105860000A480088012149030840002802D0FEF7B9
:1058700093FF01E0FEF74CFF6420FBF7FBF9FFF715
:1058800080FB0000480000202A00002006000020C5
:10589000F0B589B0E320089006E02648FBF793FDB9
:1058A000042801D0FBF73BF9012308AA80212148F5
:1058B000FBF74DFE0028F0D13C20FBF7DBF906E0BA
:1058C0001C48FBF780FD042801D0FBF728F90223D0
:1058D00006AA81211748FBF7DFFD0028F0D101203F
:1058E000FBF7C8F96946087E0002497E0843044672
:1058F000114804402046FAF7A8FE07468F21C90543
:10590000FAF7C7FC05462846FAF724FF0B4A0C4B6A
:1059100001910090FAF7AEFD0A4A0B4B03910290F9
:10592000FAF7F6FC05910490FAF73CFF064630467C
:1059300009B0F0BDAC000020FCFF0000D7A3703D13
:105940000AF76540CDCCCCCCCC6C47C0FEB5E52089
:10595000019006E02048FBF736FD042801D0FBF754
:10596000DEF8012301AA80211B48FBF7F0FD002887
:10597000F0D13C20FBF77EF906E01748FBF723FD4A
:10598000042801D0FBF7CBF802236A468121124894
:10599000FBF782FD0028F0D10120FBF76BF9694687
:1059A000087800024978084304460C480440204621
:1059B000FAF74BFE07468F21C905FAF76AFC054640
:1059C00029460748FAF728FC07460649FAF7CBFBB1
:1059D00006463046FEBD0000AC000020FCFF000083
:1059E0000000FA420000C0C000C1814001C08041F7
:1059F00001C0804100C1814001C0804100C181409F
:105A000000C1814001C0804101C0804100C181408E
:105A100000C1814001C0804100C1814001C080417E
:105A200001C0804100C1814001C0804100C181406E
:105A300000C1814001C0804100C1814001C080415E
:105A400001C0804100C1814000C1814001C080414E
:105A500001C0804100C1814001C0804100C181403E
:105A600000C1814001C0804101C0804100C181402E
:105A700000C1814001C0804100C1814001C080411E
:105A800001C0804100C1814000C1814001C080410E
:105A900001C0804100C1814001C0804100C18140FE
:105AA00000C1814001C0804100C1814001C08041EE
:105AB00001C0804100C1814001C0804100C18140DE
:105AC00000C1814001C0804101C0804100C18140CE
:105AD00000C1814001C0804100C1814001C08041BE
